8=FIX.4.4|9=116|35=W|34=146657|49=FixServer|52=20151218-08:51:45.554|56=CLIENT1|55=EURUSD|268=2|269=0|270=1.08066|269=1|270=1.08067|10=242|
8=FIX.4.4|9=114|35=W|34=146658|49=FixServer|52=20151218-08:51:45.634|56=CLIENT1|55=AUDJPY|268=2|269=0|270=86.908|269=1|270=86.915|10=150|
8=FIX.4.4|9=114|35=W|34=146659|49=FixServer|52=20151218-08:51:45.634|56=CLIENT1|55=CADJPY|268=2|269=0|270=87.322|269=1|270=87.329|10=124|8=FIX.4.4|9=116|35=W|34=146660|49=FixServer|52=20151218-08:51:45.635|56=CLIENT1|55=EURGBP|268=2|269=0|270=0.72441|269=1|270=0.72446|10=215|8=FIX.4.4|9=116|35=W|34=146661|49=FixServer|52=20151218-08:51:45.635|56=CLIENT1|55=EURNZD|268=2|269=0|270=1.61233|269=1|270=1.61261|10=227|8=FIX.4.4|9=116|35=W|34=146662|49=FixServer|52=20151218-08:51:45.635|56=CLIENT1|55=GBPAUD|268=2|269=0|270=2.08629|269=1|270=2.08653|10=209|8=FIX.4.4|9=115|35=W|34=146663|49=FixServer|52=20151218-08:51:45.635|56=CLIENT1|55=GBPUSD|268=2|269=0|270=1.4917|269=1|270=1.49175|10=177|
8=FIX.4.4|9=116|35=W|34=146664|49=FixServer|52=20151218-08:51:45.734|56=CLIENT1|55=EURJPY|268=2|269=0|270=131.362|269=1|270=131.369|10=243|
8=FIX.4.4|9=116|35=W|34=146665|49=FixServer|52=20151218-08:51:45.734|56=CLIENT1|55=GBPNZD|268=2|269=0|270=2.22558|269=1|270=2.22609|10=224|8=FIX.4.4|9=114|35=W|34=146666|49=FixServer|52=20151218-08:51:45.735|56=CLIENT1|55=NZDJPY|268=2|269=0|270=81.463|269=1|270=81.473|10=154|
